:100000000C945E000C94A1000C94C8000C94860023
:100010000C9486000C9486000C9486000C942D049D
:100020000C9486000C9486000C9486000C94860038
:100030000C9486000C9486000C9486000C94860028
:100040000C94F0000C9486000C9436030C9463031B
:100050000C9486000C9486000C9486000C94860008
:100060000C9486000C948600000000080002010039
:100070000003040700000000000000000102040863
:100080001020408001020408102001020408102002
:10009000040404040404040402020202020203032E
:1000A0000303030300000000250028002B000000CC
:1000B0000000240027002A000200930311241FBE21
:1000C000CFEFD8E0DEBFCDBF11E0A0E0B1E0E2E4C9
:1000D000F9E002C005900D92A831B107D9F721E0EF
:1000E000A8E1B1E001C01D92A53CB207E1F710E024
:1000F000CEE5D0E004C02197FE010E949904CD35E1
:10010000D107C9F70E948A040C949F040C94000044
:1001100061E08DE00C94EC0161E08DE00E9426022C
:1001200068EE73E080E090E00E94560160E08DE0B0
:100130000E94260268EE73E080E090E00C94560185
:1001400008951F920F920FB60F9211242F933F9391
:100150004F935F936F937F938F939F93AF93BF93CF
:10016000EF93FF93E0910001F09101010995FF9158
:10017000EF91BF91AF919F918F917F916F915F911F
:100180004F913F912F910F900FBE0F901F90189598
:100190001F920F920FB60F9211242F933F934F93FC
:1001A0005F936F937F938F939F93AF93BF93EF93DF
:1001B000FF93E0910201F09103010995FF91EF9106
:1001C000BF91AF919F918F917F916F915F914F916F
:1001D0003F912F910F900FBE0F901F90189508958B
:1001E0001F921FB61F9211242F933F938F939F93BB
:1001F000AF93BF938091190190911A01A0911B01B7
:10020000B0911C013091180123E0230F2D3750F5D8
:100210000196A11DB11D209318018093190190939F
:100220001A01A0931B01B0931C0180911D019091B4
:100230001E01A0911F01B09120010196A11DB11DC9
:1002400080931D0190931E01A0931F01B093200184
:10025000BF91AF919F918F913F912F911F901FBEA2
:100260001F90189526E8230F0296A11DB11DD3CF2C
:100270003FB7F89480911D0190911E01A0911F013C
:10028000B091200126B5A89B04C02F3F11F0019624
:10029000A11D3FBF782F892F9A2F622F42E0660F52
:1002A000771F881F991F4A95D1F708958F929F92C3
:1002B000AF92BF92CF92DF92EF92FF926B017C01DF
:1002C0000E9438014B015C01C114D104E104F10426
:1002D000E9F00E94EF000E943801681979098A0943
:1002E0009B09683E73408105910570F321E0C21AB5
:1002F000D108E108F10888EE880E83E0981EA11C61
:10030000B11CC114D104E104F10429F7FF90EF906E
:10031000DF90CF90BF90AF909F908F90089578948A
:1003200084B5826084BD84B5816084BD85B58260FA
:1003300085BD85B5816085BDEEE6F0E08081816098
:100340008083E1E810828081826080838081816087
:100350008083E0E8808181608083E1EB808184603C
:100360008083E0EB808181608083EAE78081846024
:1003700080838081826080838081816080838081AE
:10038000806880831092C1000895843081F050F419
:100390008230A9F0833079F4809180008F77809348
:1003A00080000895873071F0883091F00895809131
:1003B00080008F7DF4CF84B58F7784BD089584B598
:1003C0008F7DFBCF8091B0008F778093B000089530
:1003D0008091B0008F7DF9CFCF93DF9390E0FC0147
:1003E000E458FF4F249180579F4FFC018491811561
:1003F000C9F090E0880F991FFC01E255FF4FA591CD
:10040000B591FC01EC55FF4FC591D5919FB7611196
:100410000CC0F8948C91209582238C93888128239A
:1004200028839FBFDF91CF910895623051F4F894F3
:100430003C91822F809583238C938881822B8883A3
:10044000F0CFF8948C91822B8C93EBCFCF93DF93EA
:1004500000D00F92CDB7DEB76983282F30E0F901C5
:10046000E859FF4F8491F901E458FF4F94919B8321
:10047000F901E057FF4F24912A832115B9F081112A
:100480000E94C5018A81E82FF0E0EE0FFF1FEC55B6
:10049000FF4FA591B5919FB7F89429818C912111B7
:1004A0000BC02B81209528232C939FBF0F900F907A
:1004B0000F90DF91CF9108952B81822B8C93F5CFF4
:1004C000FC01918D228D892F90E0805C9F4F821BD3
:1004D00091098F7390E00895FC01918D828D98179A
:1004E00031F0828DE80FF11D858D90E008958FEF3A
:1004F0009FEF0895FC01918D828D981761F0A28D78
:10050000AE0FBF2FB11D5D968C91928D9F5F9F7333
:10051000928F90E008958FEF9FEF0895FC01238D57
:10052000348D832F90E0821B9109231710F0CF9612
:1005300008950197089589E893E0892B49F080E0B8
:1005400090E0892B29F00E94890381110C9400000E
:100550000895FC01A48DA80FB92FB11DA35ABF4F58
:100560002C91848D01968F73848FA689B7892C93E3
:10057000A089B1898C91837080648C93938D848DD4
:10058000981306C00288F389E02D80818F7D8083D7
:100590000895CF93DF93EC01888D811111C0DF9115
:1005A000CF9108950FB607FC0DC0808185FF0AC06A
:1005B000A889B9898C9185FF05C0CE010E94A90246
:1005C000EA89FB89808185FDEDCFA889B9898C9165
:1005D00086FFE8CFE4CFEF92FF920F931F93CF9364
:1005E000DF93EC01F62E81E0888F9B8D8C8D981324
:1005F0001AC0E889F989808185FF15C09FB7F894F2
:10060000EE89FF896083E889F9898081837080643D
:1006100080839FBF81E090E0DF91CF911F910F9188
:10062000FF90EF9008950B8D0F5F1F4F0F73E02E1B
:100630008C8D8E1579F0EB8DEC0FFD2FF11DE35AAB
:10064000FF4FF0829FB7F8940B8FEA89FB89808176
:100650008062DECF0FB607FCEBCFE889F989808195
:1006600085FFE6CFCE010E94A902E2CF2F932FB7DC
:100670002F938F939F93EF93FF93E0913101F0912C
:1006800032018081E0913701F091380182FD19C07B
:10069000908180913A018F5F8F7320913B01821787
:1006A00041F0E0913A01F0E0EF5DFE4F958F8093CD
:1006B0003A01FF91EF919F918F912F912FBF2F9131
:1006C00018958081F6CF1F920F920FB60F921124CA
:1006D0002F933F934F935F936F937F938F939F934A
:1006E000AF93BF93EF93FF9381E291E00E94A90241
:1006F000FF91EF91BF91AF919F918F917F916F91FA
:100700005F914F913F912F910F900FBE0F901F90CF
:10071000189581E291E00E9460029C0181E0232B08
:1007200009F480E00895E1E2F1E01282138288EE9C
:1007300093E0848395831682178289E091E0808319
:10074000918385EC8487158684EC8687178680ECF8
:10075000808B118A81EC828B138A82EC848B158AC0
:1007600086EC868B178A118E128E138E148E089546
:100770000F931F93CF93DF9300D000D000D0CDB75D
:10078000DEB789839A834B835C836D837E8300E02D
:1007900010E0AB81BC810A171B0761F4C8010F9000
:1007A0000F900F900F900F900F90DF91CF911F91AE
:1007B0000F910895A981BA81ED91FD910190F08189
:1007C000E02DAD81BE816C9189819A810995892B3B
:1007D00029F38D819E8101968D839E830F5F1F4F2C
:1007E000D8CF813039F0823059F0811119C0109280
:1007F0006E00089580916F008D7F80936F00089543
:10080000809170008D7F8093700081E08093B000B4
:100810008091B100887F84608093B1001092B30012
:100820000895CF93DF930F92CDB7DEB78983809180
:100830000401998198130FC0E8EBF0E084919FEFD9
:10084000909304010E94F10360E089810F90DF9191
:10085000CF910C9426028FEFF5CF1F920F920FB617
:100860000F9211242F933F934F935F936F937F9336
:100870008F939F93AF93BF93EF93FF938091C101A9
:100880009091C201A091C301B091C401892B8A2B20
:100890008B2BD1F19091BE01E091BF01F091C0018D
:1008A0008081892780838091C1019091C201A091AC
:1008B000C301B091C401181619061A061B069CF450
:1008C0008091C1019091C201A091C301B091C40176
:1008D0000197A109B1098093C1019093C201A0932E
:1008E000C301B093C401FF91EF91BF91AF919F916C
:1008F0008F917F916F915F914F913F912F910F90C9
:100900000FBE0F901F901895809104010E94110452
:10091000EACF08950E948F010E9489040E948800F6
:10092000CBE9D2E00E948C002097E1F30E949B0269
:10093000F9CFEE0FFF1F0590F491E02D0994F89484
:02094000FFCFE7
:10094200A000A000FF00000000EB02B8038E02C965
:080952000260027A026C02004F
:00000001FF
